:100000000C94BB000C94D8000C94D8000C94D8002D
:100010000C94D8000C94D8000C94D8000C94D80000
:100020000C94D8000C94D8000C94D8000C94D800F0
:100030000C94D8000C94D8000C94D8000C94D800E0
:100040000C94D8000C94D8000C9491010C944E019F
:100050000C94D8000C94D8000C94D8000C94D800C0
:100060000C94D8000C94D8006E616E00696E660026
:1000700000407A10F35A00A0724E18090010A5D45F
:10008000E80000E87648170000E40B54020000CABC
:100090009A3B000000E1F505000080969800000002
:1000A00040420F000000A086010000001027000061
:1000B0000000E803000000006400000000000A00E7
:1000C000000000000100000000002C76D888DC67EA
:1000D0004F0823DFC1DFAE59E1B1B796E5E3E45342
:1000E000C63AE651997696E8E6C28426EB898C9B5F
:1000F00062ED407C6FFCEFBC9C9F40F2BAA56FA5FF
:10010000F490055A2AF75C936B6CF9676DC11BFC80
:10011000E0E40D47FEF520E6B500D0ED902E03009B
:10012000943577050080841E080000204E0A0000E8
:1001300000C80C333333330F986E12831141EF8DA7
:100140002114893BE65516CFFEE6DB18D1844B38E7
:100150001BF77C1D901DA4BBE424203284725E2218
:100160008100C9F124ECA1E53D276364696E6F70DD
:10017000737578585B0011241FBECFEFD8E0DEBF47
:10018000CDBF12E0A0E0B1E0EEEDF5E102C00590D8
:100190000D92AC39B107D9F723E0ACE9B2E001C068
:1001A0001D92AA37B207E1F70E94C7010C94ED0A2D
:1001B0000C94000020919D02909101012917D1F328
:1001C00090919D02911104C090910101943691F398
:1001D000E09101010E2E000CFF0BE256FD4F8083D3
:1001E000809101018F5F809301018091010184362C
:1001F000B1F090919D0280910101981769F0809172
:100200009D02811104C080910101843629F0809102
:10021000C10080628093C10080E090E00895109258
:100220000101E7CF80919C02833609F180919C0205
:1002300020910001082E000C990B0196022E000C53
:10024000330B8217930771F380919C028F5F809329
:100250009C0280919C02843679F0E0919C020E2EE3
:10026000000CFF0BE05FFC4F808190E008958091CF
:1002700000018823B9F2DACF10929C02EECF87E614
:1002800090E09093C5008093C4001092C00088E174
:100290008093C10086E08093C20008951F920F9260
:1002A0000FB60F9211242F933F938F939F93EF9349
:1002B000FF9380919D02833661F180919D02209190
:1002C0000101082E000C990B0196022E000C330B35
:1002D0008217930799F080919D028F5F80939D0212
:1002E00080919D028436D1F0E0919D020E2E000C8B
:1002F000FF0BE256FD4F80818093C600FF91EF9186
:100300009F918F913F912F910F900FBE0F901F9053
:100310001895809101018111D0CFF0CF10929D02EC
:10032000E3CF1F920F920FB60F9211248F939F93DA
:10033000EF93FF9390919C02809100019817D9F060
:1003400080919C02811104C080910001843699F053
:10035000E09100018091C6000E2E000CFF0BE05FC3
:10036000FC4F8083809100018F5F8093000180911A
:100370000001843649F0FF91EF919F918F910F908A
:100380000FBE0F901F90189510920001F4CFCF93DD
:10039000DF93CDB7DEB7C656D1090FB6F894DEBFEE
:1003A0000FBECDBF87E690E09093C5008093C40058
:1003B0001092C00088E18093C10086E08093C20063
:1003C00082E093E02AED30E030930B0320930A03A0
:1003D00022E131E030930D0320930C0323E02093BE
:1003E000050310920F0310920E03909379038093EC
:1003F00078039093770380937603909375038093AB
:10040000740378948091C10080688093C1008E014C
:100410000B591F4FCE0101965C018EE8C82E82E079
:10042000D82E94E9E92E92E0F92E82E091E00E9424
:100430002E078EE691E00E942E0781E792E00E944F
:100440002E071F930F93BF92AF92DF92CF920E941D
:100450005E07F80181818F9380818F93BF92AF9265
:10046000FF92EF920E9418070FB6F894DEBF0FBEFE
:10047000CDBFDBCFA0E1B0E0E0E4F2E00C94B70543
:100480007C011B016A01FC0117821682838181FFB6
:1004900044C39E012F5F3F4F3901F7019381F10162
:1004A00093FD859193FF81911F01882309F431C346
:1004B000853239F493FD859193FF81911F01853237
:1004C00039F4B70190E00E94DC0656016501E5CFE2
:1004D00010E0512C912CFFE1F915D8F08B3279F016
:1004E00038F4803279F08332A1F4F92DF0612EC016
:1004F0008D3261F0803369F4292D21602DC0392DB2
:100500003260932E892D8460982E2AC0E92DE860F0
:1005100015C097FC2DC020ED280F2A3088F496FED8
:1005200006C03AE0139F200D1124122F19C08AE053
:10053000589E200D1124522EE92DE0629E2E10C0EF
:100540008E3231F496FCE5C2F92DF0649F2E08C07E
:100550008C3621F4292D2068922E02C0883641F471
:10056000F10193FD859193FF81911F018111B3CF1B
:100570009BEB980F933020F4992D9061805E07C01B
:100580009BE9980F933008F066C1992D9F7E96FFE6
:1005900016E09F73992E853619F49064992E08C041
:1005A000863621F4392F3068932E02C01111115074
:1005B00097FE07C01C3350F444244394410E27E0B7
:1005C0000BC0183038F027E017E005C027E09CE3A7
:1005D000492E02C0212F412C560184E0A80EB11CE7
:1005E000F6016081718182819381042DA3010E94B3
:1005F000EE056C01F981FC87F0FF02C0F3FF06C035
:1006000091FC06C092FE06C000E205C00DE203C0E8
:100610000BE201C000E08C858C7019F001115AC208
:100620009BC297FE10C04C0CFC85F4FF04C08A816D
:10063000813309F44A94141474F528E0241578F5EC
:1006400088E0482E2CC096FC2AC0812F90E08C15A3
:100650009D059CF03CEFC3163FEFD30674F0892D47
:100660008068982E0AC0E2E0F0E0EC0FFD1FE10F79
:10067000F11D8081803319F411501111F4CF97FED0
:100680000EC044244394410E812F90E0C816D90631
:100690002CF41C1904C04424439401C010E097FEBC
:1006A00006C01C141D0434F4C601019605C085E083
:1006B00090E002C081E090E001110196112331F039
:1006C000212F30E02F5F3F4F820F931F252D30E009
:1006D0008217930714F4581A01C0512C892D897080
:1006E00049F4552039F0B70180E290E00E94DC0621
:1006F0005A94F7CF002329F0B701802F90E00E9491
:10070000DC0693FC09C0552039F0B70180E390E086
:100710000E94DC065A94F7CF97FE4CC04601D7FEE4
:1007200002C0812C912CC60188199909F301E80FA8
:10073000F91FFE87ED87960124193109388B2F8721
:10074000012F10E01195019511093FEF83169306D3
:1007500029F4B7018EE290E00E94DC06C814D904A7
:100760004CF08F8598898815990524F4ED85FE85D0
:10077000818101C080E3F1E08F1A91082D853E85CB
:100780002F5F3F4F3E872D87801691062CF0B701D3
:1007900090E00E94DC06D9CFC814D90441F49A81B4
:1007A000963320F4953319F43C8534FF81E3B70187
:1007B00090E04EC08A81813319F09C859F7E9C8792
:1007C000B70190E00E94DC06111105C094FC18C02E
:1007D00085E690E017C0B7018EE290E00E94DC064B
:1007E0001E5F82E001E0080FF301E80FF11D808138
:1007F000B70190E00E94DC06802F0113F3CFE6CF13
:1008000085E490E0B7010E94DC06D7FC06C0C11465
:10081000D10441F4EC85E4FF05C0D194C194D10822
:100820008DE201C08BE2B70190E00E94DC0680E31C
:100830002AE0C216D1042CF08F5FFAE0CF1AD1085B
:10084000F7CFB70190E00E94DC06B701C601C09661
:100850000E94DC0654C1833631F0833779F083354A
:1008600009F056C020C0560132E0A30EB11CF601BB
:100870008081898301E010E0630112C05601F2E03B
:10088000AF0EB11CF601C080D18096FE03C0612F6F
:1008900070E002C06FEF7FEFC6010E94D1068C01AD
:1008A000F92DFF7714C0560122E0A20EB11CF6010B
:1008B000C080D18096FE03C0612F70E002C06FEF50
:1008C0007FEFC6010E94C6068C01F92DF0689F2EAD
:1008D000F3FD1AC0852D90E008171907A8F4B70199
:1008E00080E290E00E94DC065A94F4CFF60197FC77
:1008F000859197FE81916F01B70190E00E94DC061F
:1009000051105A94015011090115110579F7F7C0DA
:10091000843611F0893661F5560197FE09C024E04E
:10092000A20EB11CF60160817181828193810AC09F
:10093000F2E0AF0EB11CF60160817181072E000C50
:10094000880B990BF92DFF769F2E97FF09C0909584
:100950008095709561957F4F8F4F9F4FF0689F2EC8
:100960002AE030E0A3010E947407C82EC6183FC0D9
:10097000092D853721F40F7E2AE030E01DC0097F64
:100980008F3691F018F4883559F0C3C0803719F0CC
:10099000883711F0BEC0006104FF09C0046007C0C1
:1009A00094FE08C0066006C028E030E005C020E1E3
:1009B00030E002C020E132E0560107FF09C084E0C8
:1009C000A80EB11CF601608171818281938108C0FB
:1009D000F2E0AF0EB11CF6016081718180E090E021
:1009E000A3010E947407C82EC6180F77902E96FE9A
:1009F0000BC0092D0E7FC11650F494FE0AC092FC64
:100A000008C0092D0E7E05C0DC2C092D03C0DC2C8E
:100A100001C0D12E04FF0DC0FE01EC0DF11D80813F
:100A2000803311F4097E09C002FF06C0D394D39429
:100A300004C0802F867809F0D39403FD11C000FF15
:100A400006C01C2DD51480F4150D1D190DC0D5142C
:100A500058F4B70180E290E00E94DC06D394F7CF0F
:100A6000D51410F45D1801C0512C04FF10C0B7015B
:100A700080E390E00E94DC0602FF17C001FD03C086
:100A800088E790E002C088E590E0B7010CC0802FB5
:100A9000867859F001FF02C08BE201C080E207FDB9
:100AA0008DE2B70190E00E94DC06C11638F4B70170
:100AB00080E390E00E94DC061150F7CFCA94F30166
:100AC000EC0DF11D8081B70190E00E94DC06C110A1
:100AD000F5CF15C0F4E0F51560F584E0581A93FEE3
:100AE0001FC0011127C02C8523FF2AC008E610E093
:100AF000392D3071932EF8018491811124C0552035
:100B000009F4E4CCB70180E290E00E94DC065A943C
:100B1000F6CFF7018681978126C08FEF9FEF23C024
:100B2000B70180E290E00E94DC065A945110F8CFA1
:100B3000D8CF512CB701802F90E00E94DC06D3CF94
:100B40000CE610E0D5CF91108052B70190E00E94E2
:100B5000DC060F5F1F4FCFCF23E0251510F483E095
:100B6000BDCF512CC0CF6096E2E10C94D3052F92FB
:100B70003F924F925F926F927F928F929F92AF922D
:100B8000BF92CF92DF92EF92FF920F931F93CF937A
:100B9000DF93CDB7DEB7CA1BDB0B0FB6F894DEBF11
:100BA0000FBECDBF09942A88398848885F846E8437
:100BB0007D848C849B84AA84B984C884DF80EE8081
:100BC000FD800C811B81AA81B981CE0FD11D0FB68A
:100BD000F894DEBF0FBECDBFED010895283008F0B8
:100BE00027E03327DA01990F311D87FD91600096C8
:100BF0006105710539F432602E5F3D9330E32A952B
:100C0000E1F708959F3F30F080387105610509F0E4
:100C10003C5F3C5F3D93913008F08068911DDF930D
:100C2000CF931F930F93FF92EF92192F987F969572
:100C3000E92F96959695E90FFF27E653FF4F9927E1
:100C40003327EE24FF24A701E701059008940794B9
:100C500028F4360FE71EF81E491F511D660F771F37
:100C6000881F991F0694A1F70590079428F4E70EB2
:100C7000F81E491F561FC11D770F881F991F661F39
:100C80000694A1F70590079428F4F80E491F561F03
:100C9000C71FD11D880F991F661F771F0694A1F7E4
:100CA0000590079420F4490F561FC71FD81F990FAE
:100CB000661F771F881F0694A9F7849110951770F7
:100CC00041F0D695C79557954795F794E7941A95AF
:100CD000C1F7E0E7F0E068941590159135916591C2
:100CE000959105907FE27395E118F10A430B560B3D
:100CF000C90BD009C0F7E10CF11E431F561FC91FD5
:100D0000D01D7EF4703311F48A95E6CFE89401503B
:100D100030F0080F0AF40027021708F4202F23955B
:100D2000022F7A3328F079E37D932A95E9F710C0F2
:100D30007D932A9589F6069497956795379517952B
:100D40001794E118F10A430B560BC90BD00998F020
:100D500023957E9173957A3308F070E37C9320138A
:100D6000B8F77E9170617D9330F0839571E37D9348
:100D700070E32A95E1F71124EF90FF900F911F91F6
:100D8000CF91DF91992787FD90950895FC010590FB
:100D9000615070400110D8F7809590958E0F9F1F7D
:100DA0000895FC016150704001900110D8F78095C2
:100DB00090958E0F9F1F08950F931F93CF93DF93EE
:100DC000FB01238121FD03C08FEF9FEF2CC022FF89
:100DD00016C046815781248135814217530744F458
:100DE000A081B1819D012F5F3F4F318320838C9380
:100DF000268137812F5F3F4F3783268314C08B01B5
:100E0000EC01FB010084F185E02D0995892BE1F6C9
:100E1000D80116968D919C911797019617969C93E1
:100E20008E931697CE01DF91CF911F910F91089568
:100E3000A0E0B0E0EEE1F7E00C94C705AE014B5F37
:100E40005F4FFA0161917191AF01809176039091AA
:100E500077030E943A02E2E00C94E3050F931F939C
:100E6000CF93DF93E0917603F0917703238121FF05
:100E70001BC08C01D0E0C0E0F80181918F0160912E
:100E8000760370917703DB011896ED91FC91199729
:100E9000882331F00995892B79F3DFEFCFEFECCF81
:100EA0008AE00995892B19F08FEF9FEF02C08D2FF3
:100EB0009C2FDF91CF911F910F910895A0E0B0E09A
:100EC000E4E6F7E00C94C705AE014B5F5F4FFA0113
:100ED00061917191AF0180917403909175030E94AB
:100EE0006E09E2E00C94E305FA01AA27283051F1DB
:100EF000203181F1E8946F936E7F6E5F7F4F8F4F4B
:100F00009F4FAF4FB1E03ED0B4E03CD0670F781FA9
:100F1000891F9A1FA11D680F791F8A1F911DA11D8E
:100F20006A0F711D811D911DA11D20D009F46894C7
:100F30003F912AE0269F11243019305D3193DEF66F
:100F4000CF010895462F4770405D4193B3E00FD025
:100F5000C9F7F6CF462F4F70405D4A3318F0495D10
:100F600031FD4052419302D0A9F7EACFB4E0A695F3
:100F70009795879577956795BA95C9F70097610515
:100F8000710508959B01AC010A2E0694579547956B
:100F900037952795BA95C9F7620F731F841F951F60
:100FA000A01D089520FD09C0FC0123FD05C022FFFE
:100FB00002C07383628351834083089544FD17C048
:100FC00046FD17C0AB01BC01DA01FB01AA0FBB1F34
:100FD000EE1FFF1F1094D1F74A0F5B1F6E1F7F1F7C
:100FE000CB01BA01660F771F881F991F09C033E034
:100FF00001C034E0660F771F881F991F3150D1F769
:10100000620F711D811D911D08950F931F93CF9342
:10101000DF938C01C8010E94930AEC0197FD08C080
:101020000E947F0A892BB1F7B801CE010E94D10A34
:10103000CE01DF91CF911F910F9108958F929F92D2
:10104000AF92BF92EF92FF920F931F93CF93DF93D4
:101050008C01D62F7A01B22E0E94930A9C0133276D
:101060002B32310531F02D32310561F48B2D806842
:10107000B82ED15011F480E068C0C8010E94930AD4
:1010800097FDF9CFCB2DCD7F2B2D207309F5803324
:10109000F9F4AA24AA94AD0E09F443C0C8010E9431
:1010A000930A97FD3EC09C012F7D332728353105DB
:1010B00049F4C264D250A9F1C8010E94930A97FF73
:1010C00007C02FC0B6FE02C0C26001C0C261DA2DE7
:1010D000812C912C540120ED280F283080F0C4FF82
:1010E00004C0B8010E94D10A19C02A3040F0C6FFDE
:1010F000F8CF2F7D3FEE320F363098F727504C2F28
:10110000C501B4010E94DE074B015C01C260D150F1
:1011100059F0C8010E94930A97FFDDCFC1FD04C0BA
:10112000AACF812C912C5401C7FF08C0B094A09481
:1011300090948094811C911CA11CB11C2C2FB50192
:10114000A401C7010E94D20781E0DF91CF911F91D6
:101150000F91FF90EF90BF90AF909F908F90089568
:10116000A0E2B0E0E6EBF8E00C94BA055C01962E44
:101170007A01F9018E010F5F1F4F680180E2D801EB
:101180001D928A95E9F7D50113968C9080E090E046
:10119000612C712C30E061E070E083FC259183FECE
:1011A00021918F01522E211103C080E090E092C066
:1011B0002E3511F4009751F1432F50E0481759078D
:1011C0003CF42D3559F12D3219F4772009F103C083
:1011D000772009F46AC0452D469546954695D60177
:1011E000A40FB11D452D47708B0102C0000F111FC8
:1011F0004A95E2F7A8015C91452B4C93651459F090
:10120000561410F45394E7CF5A94E5CF31E004C05C
:101210007724739401C0712C0196BFCF772019F009
:101220008E8180628E83311103C08824839417C01D
:10123000F6019E012F5D3F4F8081809581932E178F
:101240003F07D1F7F2CFE114F10429F0D7018C93D5
:10125000F70131967F019A94812C9920F9F0C5010C
:101260000E94930A97FD18C0FC01FF2723E0F59523
:10127000E7952A95E1F7EC0DFD1D208130E0AC01EA
:101280004770552702C0359527954A95E2F720FD0E
:10129000DACFB5010E94D10A811087CFE114F104A1
:1012A00011F0D7011C92C80115C0422F46954695F2
:1012B0004695D601A40FB11D422F47708B0102C085
:1012C000000F111F4A95E2F7A8015C91452B4C9342
:1012D000622EA2CFA096EFE00C94D605A0E0B0E07D
:1012E000E4E7F9E00C94BA056C01EB015A01FC014A
:1012F00017821682512CF601E380FE01E3FC8591F2
:10130000E3FE8191182FEF01882309F4EEC090E0ED
:101310000E947F0A892B21F0C6010E940508EBCFAD
:10132000153241F4FE01E3FC1591E3FE1191EF014A
:10133000153281F4C6010E94930A97FDD4C0412F53
:1013400050E09C01332724173507A9F2B6010E940B
:10135000D10ACBC01A3239F4E3FC1591E3FE1191A6
:10136000EF0101E001C000E0F12C20ED210F2A3057
:1013700080F402606F2D70E080E090E040E20E9417
:10138000DE07F62EFE01E3FC1591E3FE1191EF015D
:10139000ECCF01FF03C0F11003C0A7C0FF24FA94F3
:1013A000183619F01C3651F010C0FE01E3FC1591FF
:1013B000E3FE1191EF01183641F408600460FE016C
:1013C000E3FC1591E3FE1191EF01112309F48DC0A7
:1013D000612F70E08AE691E00E94880A892B09F467
:1013E00084C000FD07C0F50180809180C501029690
:1013F0005C0102C0812C912C1E3651F4F60146810D
:10140000578160E070E0202FC4010E94D20773CFA3
:101410001336A9F401FD02C0FF24F394C6010E9413
:10142000930A97FD60C08114910429F0F401808330
:10143000C40101964C01FA94F110F0CF50C01B3555
:1014400059F49E01A4016F2DC6010E94B008EC0161
:10145000892B09F044C03EC0C6010E94050897FDD3
:1014600042C01F3661F128F4143639F1193651F1B2
:1014700028C0133771F0153701F123C0811491048E
:1014800029F0F4016082C40101964C01FA94FF2016
:1014900071F0C6010E94930A3C0197FD08C00E94AA
:1014A0007F0A892B59F3B601C3010E94D10A811426
:1014B0009104A9F0F401108212C0006203C000611F
:1014C00001C00064202FA4016F2DC6010E941E08D8
:1014D000811105C0F6018381807329F406C000FDE7
:1014E0000ACF539408CF552019F0852D90E002C003
:1014F0008FEF9FEFCDB7DEB7EFE00C94D6059111DB
:101500000C94EA0A803219F089508550C8F7089582
:10151000FC010590061621F00020D9F7C0010895BE
:101520003197CF010895CF93DF93EC012B8120FFFA
:1015300033C026FF0AC02F7B2B838E819F810196AB
:101540009F838E838A8190E029C022FF0FC0E881AB
:10155000F9818081082E000C990B009719F4206204
:101560002B831AC03196F983E8830EC0EA85FB8588
:10157000099597FF09C02B81019611F080E201C007
:1015800080E1822B8B8308C02E813F812F5F3F4FEC
:101590003F832E83992702C08FEF9FEFDF91CF917A
:1015A0000895FB01238120FF12C026FD10C08F3F4C
:1015B0003FEF930761F082832F7D20642383268190
:1015C00037812150310937832683992708958FEF7A
:0E15D0009FEF0895992788270895F894FFCF7C
:1015DE00010174657374207465737420746573747B
:1015EE00207465737420746573742074657374202D
:1015FE0074657374207465737420313233313233F1
:10160E002074657374756A656D7920313262656216
:10161E0031696269623231623169626531692061B4
:10162E006461776477716962646961323239323923
:10163E0031395F5F5F2C64612C6177640D005768F0
:10164E006174206120666F6F6C20796F75206172F6
:10165E00652C2049276D206120676F642120486F1B
:10166E00772063616E20796F75206B696C6C2061D9
:10167E0020676F643F205768617420612067726134
:10168E006E6420616E6420696E746F786963617434
:10169E00696E6720696E6E6F63656E6365212048A3
:1016AE006F7720636F756C6420796F75206265208B
:1016BE00736F206E616976653F2054686572652090
:1016CE006973206E6F206573636170652C206E6F79
:1016DE0020726563616C6C206F7220696E74657226
:1016EE0076656E74696F6E2063616E20776F726BB4
:1016FE0020696E207468697320706C6163652120A7
:10170E00436F6D6521204C617920646F776E20796F
:10171E006F757220776561706F6E7321204974202A
:10172E006973206E6F7420746F6F206C6174652006
:10173E00666F72206D79206D657263792E2E2E0D77
:10174E00005768792077616C6B207768656E207919
:10175E006F752063616E20726964653F0D0025739D
:0C176E002025750025732025750D0A004C
:00000001FF
