:100000000C9434000C943E000C943E000C943E0082
:100010000C943E000C943E000C943E000C943E0068
:100020000C943E000C943E000C943E000C943E0058
:100030000C943E000C943E000C943E000C943E0048
:100040000C943E000C943E000C943E000C943E0038
:100050000C943E000C943E000C943E000C943E0028
:100060000C943E000C943E0011241FBECFEFD8E04C
:10007000DEBFCDBF0E9440000C946D000C940000C8
:100080008AB18FEF8AB98091C100877E8093C100C9
:1000900081E08BB927E030E08BB1880F8BB94FEF4F
:1000A00081EE94E0415080409040E1F700C00000B4
:1000B0002150310989F727E030E08BB186958BB963
:1000C0004FEF81EE94E0415080409040E1F700C056
:0E00D00000002150310989F7DDCFF894FFCFF1
:00000001FF
