:100000000C9474000C9491000C9491000C94910049
:100010000C9491000C9491000C9491000C9491001C
:100020000C9491000C9491000C9491000C9491000C
:100030000C9491000C9491000C9491000C949100FC
:100040000C9491000C9491000C9491000C949100EC
:100050000C9491000C9491000C9491000C949100DC
:100060000C9491000C9491008C0263041E04C9024C
:10007000FE011302BC03C201EA0171011A03ED0380
:1000800099013B028501A80306032702D601AD01B1
:100090007802A8046B0364025703B50238013801E3
:1000A00038013801380138018C0263041E04C9028A
:1000B000FE011302BC03C201EA0171011A03ED0340
:1000C00099013B028501A80306032702D601AD0171
:1000D0007802A8046B0364025703B5026364696E77
:1000E0006F70737578585B0011241FBECFEFD8E096
:1000F000DEBFCDBF11E0A0E0B1E0EAEAF1E102C06D
:1001000005900D92A231B107D9F721E0A2E1B1E04B
:1001100001C01D92A632B207E1F70E94DD000C94E7
:10012000D3080C9400009091C00095FFFCCF809301
:10013000C60080E090E008958091C00087FFFCCF6A
:100140008091C60090E0089587E690E09093C50006
:100150008093C4001092C00088E18093C10086E0C3
:100160008093C20008952D9A2FE782E490E12150F8
:1001700080409040E1F700C000002D982FE782E416
:1001800090E1215080409040E1F700C000000895C8
:100190002D9A2FEF83ED90E3215080409040E1F7BE
:1001A00000C000002D982FE782E490E121508040AC
:1001B0009040E1F700C000000895CF93DF93CDB7E2
:1001C000DEB7C456D1090FB6F894DEBF0FBECDBF5F
:1001D000259A87E690E09093C5008093C400109222
:1001E000C00088E18093C10086E08093C20082E174
:1001F00091E023E930E030931B0120931A012CE9B0
:1002000030E030931D0120931C0123E02093150161
:1002100010921F0110921E019093250180932401DA
:1002200090932301809322019093210180932001D8
:1002300080E091E00E94FF04CE0101966C0184E60B
:10024000782E9EE0A92E91E0B92ED601E72D1D92C1
:10025000EA95E9F7DF92CF92BF92AF920E942F0505
:1002600076010F900F900F900F9000E010E014C0F7
:10027000EFE7FAEE21E7E150F0402040E1F700C05F
:1002800000008FEF94E8A0E281509040A040E1F799
:1002900000C000000F5F1F4FF60101900020E9F73A
:1002A0003197EC19FD090E171F0708F096C3470197
:1002B000D7018D917D01082E000C990B0E94F80446
:1002C000D401EC918E2FEE0F990BAA0BBB0BFC0106
:1002D000E154F109EA33F10558F6EC5CFF4F0C9458
:1002E000F2042D9A9FE7A2E4B0E19150A040B04003
:1002F000E1F700C000002D98EFE7F2E420E1E150C3
:10030000F0402040E1F700C000002D9A8FEF93ED00
:10031000A0E381509040A040E1F700C000002D987C
:10032000BFE7E2E4F0E1B150E040F040E1F700C0A7
:1003300000002D9A2FEF83ED90E3215080409040F4
:10034000E1F700C000002D98AFE7B2E4E0E1A15072
:10035000B040E040E1F700C000002D9AFFEF23ED30
:1003600080E3F15020408040E1F700C000002D986C
:100370009FE7A2E4B0E19150A040B040E1F700C097
:1003800000007FCF2D9AFFE722E480E1F15020406A
:100390008040E1F700C000002D989FE7A2E4B0E1A3
:1003A0009150A040B040E1F700C000002D9AEFE767
:1003B000F2E420E1E150F0402040E1F700C000000D
:1003C0002D988FE792E4A0E181509040A040E1F7A2
:1003D00000C000002D9ABFE7E2E4F0E1B150E04038
:1003E000F040E1F700C000002D982FE782E490E193
:1003F000215080409040E1F700C000002D9AAFE707
:10040000B2E4E0E1A150B040E040E1F700C00000FC
:100410002D98FFE722E480E1F15020408040E1F791
:1004200000C000002ECF2D9AAFE7B2E4E0E1A1506A
:10043000B040E040E1F700C000002D98FFE722E463
:1004400080E1F15020408040E1F700C000002D9A8B
:100450009FE7A2E4B0E19150A040B040E1F700C0B6
:1004600000002D98EFE7F2E420E1E150F040204059
:10047000E1F700C000002D9A8FEF93EDA0E38150CB
:100480009040A040E1F700C000002D98BFE7E2E4F3
:10049000F0E1B150E040F040E1F700C000002D9ADB
:1004A0002FE782E490E1215080409040E1F700C0C6
:1004B00000002D98AFE7B2E4E0E1A150B040E04089
:1004C000E1F700C00000DDCE2D9A2FEF83ED90E321
:1004D000215080409040E1F700C000002D98AFE728
:1004E000B2E4E0E1A150B040E040E1F700C000001C
:1004F0002D9AFFE722E480E1F15020408040E1F7AF
:1005000000C000002D989FE7A2E4B0E19150A04008
:10051000B040E1F700C000002D9AEFE7F2E420E1DF
:10052000E150F0402040E1F700C000002D988FE737
:1005300092E4A0E181509040A040E1F700C00000AB
:100540002D9ABFEFE3EDF0E3B150E040F040E1F76A
:1005500000C000002D982FE782E490E121508040F8
:100560009040E1F700C000008CCE2D9A8FEF93ED04
:10057000A0E381509040A040E1F700C000002D981A
:10058000BFE7E2E4F0E1B150E040F040E1F700C045
:1005900000002D9A2FEF83ED90E321508040904092
:1005A000E1F700C000002D98AFE7B2E4E0E1A15010
:1005B000B040E040E1F700C000002D9AFFE722E4E0
:1005C00080E1F15020408040E1F700C000002D980C
:1005D0009FE7A2E4B0E19150A040B040E1F700C035
:1005E00000002D9AEFE7F2E420E1E150F0402040D6
:1005F000E1F700C000002D988FE792E4A0E1815060
:100600009040A040E1F700C000003BCE2D9AEFEFF4
:10061000F3ED20E3E150F0402040E1F700C000009E
:100620002D988FE792E4A0E181509040A040E1F73F
:1006300000C000002D9ABFEFE3EDF0E3B150E040C1
:10064000F040E1F700C000002D982FE782E490E130
:10065000215080409040E1F700C000002D9AAFE7A4
:10066000B2E4E0E1A150B040E040E1F700C000009A
:100670002D98FFE722E480E1F15020408040E1F72F
:1006800000C000002D9A9FEFA3EDB0E39150A04071
:10069000B040E1F700C000002D98EFE7F2E420E160
:1006A000E150F0402040E1F700C00000EACD2D9A73
:1006B000BFEFE3EDF0E3B150E040F040E1F700C000
:1006C00000002D982FE782E490E121508040904077
:1006D000E1F700C000002D9AAFE7B2E4E0E1A150DD
:1006E000B040E040E1F700C000002D98FFE722E4B1
:1006F00080E1F15020408040E1F700C000002D9AD9
:100700009FEFA3EDB0E39150A040B040E1F700C0EF
:1007100000002D98EFE7F2E420E1E150F0402040A6
:10072000E1F700C000002D9A8FEF93EDA0E3815018
:100730009040A040E1F700C000002D98BFE7E2E440
:10074000F0E1B150E040F040E1F700C0000099CD89
:100750002D9A9FE7A2E4B0E19150A040B040E1F7AC
:1007600000C000002D98EFE7F2E420E1E150F040F6
:100770002040E1F700C000002D9A8FEF93EDA0E339
:1007800081509040A040E1F700C000002D98BFE7E5
:10079000E2E4F0E1B150E040F040E1F700C00000D9
:1007A0002D9A2FEF83ED90E3215080409040E1F7A8
:1007B00000C000002D98AFE7B2E4E0E1A150B040E6
:1007C000E040E1F700C000002D9AFFE722E480E15D
:1007D000F15020408040E1F7C8CD2D9AAFE7B2E458
:1007E000E0E1A150B040E040E1F700C000002D98EA
:1007F000FFE722E480E1F15020408040E1F700C0B3
:1008000000002D9A9FEFA3EDB0E39150A040B040BF
:10081000E1F700C000002D98EFE7F2E420E1E1509D
:10082000F0402040E1F700C000002D9A8FE792E4ED
:10083000A0E181509040A040E1F725CE2D9ABFEF76
:10084000E3EDF0E3B150E040F040E1F700C000001C
:100850002D982FE782E490E1215080409040E1F70D
:1008600000C000002D9AAFE7B2E4E0E1A150B04033
:10087000E040E1F700C000002D98FFE722E480E1AE
:10088000F15020408040E1F700C000002D9A9FEF1A
:10089000A3EDB0E39150A040B040E1F700C00000EC
:1008A0002D98EFE7F2E420E1E150F0402040E1F73D
:1008B00000C000002D9A8FE792E4A0E181509040A3
:1008C000A040E1F738CF2D9A2FEF83ED90E3215030
:1008D00080409040E1F700C000002D98AFE7B2E4FF
:1008E000E0E1A150B040E040E1F700C000002D9AE7
:1008F000FFE722E480E1F15020408040E1F700C0B2
:1009000000002D989FE7A2E4B0E19150A040B040D4
:10091000E1F700C000002D9AEFE7F2E420E1E1509A
:10092000F0402040E1F700C000002D988FE792E4EE
:10093000A0E181509040A040E1F700C000002D9A56
:10094000BFE7E2E4F0E1B150E040F040E1F700CE73
:100950002D9AFFE722E480E1F15020408040E1F74A
:1009600000C000002D989FE7A2E4B0E19150A040A4
:10097000B040E1F700C000002D9AEFE7F2E420E17B
:10098000E150F0402040E1F700C000002D988FE7D3
:1009900092E4A0E181509040A040E1F700C0000047
:1009A0002D9ABFE7E2E4F0E1B150E040F040E1F71A
:1009B00000C000002D982FE782E490E12150804094
:1009C0009040E1F700C000002D9AAFEFB3EDE0E3F7
:1009D000A150B040E040E1F719CD8CE091E00E94D9
:1009E000FF0433CCEE0FFF1F0590F491E02D099426
:1009F00060912201709123010E94440808950F9391
:100A00001F93CF93DF93E0912201F0912301238183
:100A100021FF1BC08C01D0E0C0E0F80181918F0163
:100A20006091220170912301DB011896ED91FC91F8
:100A30001997882331F00995892B79F3DFEFCFEFF0
:100A4000ECCF8AE00995892B19F08FEF9FEF02C058
:100A50008D2F9C2FDF91CF911F910F910895A0E0D2
:100A6000B0E0E5E3F5E00C94AC08AE014B5F5F4FFE
:100A7000FA0161917191AF01809120019091210162
:100A80000E94E106E2E00C94C80820FD09C0FC01C8
:100A900023FD05C022FF02C073836283518340831C
:100AA000089544FD17C046FD17C0AB01BC01DA0133
:100AB000FB01AA0FBB1FEE1FFF1F1094D1F74A0FB7
:100AC0005B1F6E1F7F1FCB01BA01660F771F881F48
:100AD000991F09C033E001C034E0660F771F881FFB
:100AE000991F3150D1F7620F711D811D911D08951D
:100AF0000F931F93CF93DF938C01C8010E940608C8
:100B0000EC0197FD08C00E94F207892BB1F7B801EC
:100B1000CE010E948008CE01DF91CF911F910F91ED
:100B200008958F929F92AF92BF92EF92FF920F9390
:100B30001F93CF93DF938C01D62F7A01B22E0E94A0
:100B400006089C0133272B32310531F02D32310557
:100B500061F48B2D8068B82ED15011F480E068C00C
:100B6000C8010E94060897FDF9CFCB2DCD7F2B2D14
:100B7000207309F58033F9F4AA24AA94AD0E09F480
:100B800043C0C8010E94060897FD3EC09C012F7D0E
:100B900033272835310549F4C264D250A9F1C80180
:100BA0000E94060897FF07C02FC0B6FE02C0C260B1
:100BB00001C0C261DA2D812C912C540120ED280F47
:100BC000283080F0C4FF04C0B8010E94800819C01A
:100BD0002A3040F0C6FFF8CF2F7D3FEE320F36307F
:100BE00098F727504C2FC501B4010E9451054B01C5
:100BF0005C01C260D15059F0C8010E94060897FFFD
:100C0000DDCFC1FD04C0AACF812C912C5401C7FFB8
:100C100008C0B094A09490948094811C911CA11C55
:100C2000B11C2C2FB501A401C7010E94450581E02C
:100C3000DF91CF911F910F91FF90EF90BF90AF90F8
:100C40009F908F900895A0E2B0E0E9E2F6E00C9466
:100C50009F085C01962E7A01F9018E010F5F1F4FEC
:100C6000680180E2D8011D928A95E9F7D5011396B3
:100C70008C9080E090E0612C712C30E061E070E0BD
:100C800083FC259183FE21918F01522E211103C0F7
:100C900080E090E092C02E3511F4009751F1432F7F
:100CA00050E0481759073CF42D3559F12D3219F40D
:100CB000772009F103C0772009F46AC0452D4695D5
:100CC00046954695D601A40FB11D452D47708B0161
:100CD00002C0000F111F4A95E2F7A8015C91452B55
:100CE0004C93651459F0561410F45394E7CF5A946A
:100CF000E5CF31E004C07724739401C0712C0196D4
:100D0000BFCF772019F08E8180628E83311103C0AE
:100D10008824839417C0F6019E012F5D3F4F808188
:100D2000809581932E173F07D1F7F2CFE114F1049C
:100D300029F0D7018C93F70131967F019A94812C89
:100D40009920F9F0C5010E94060897FD18C0FC0122
:100D5000FF2723E0F595E7952A95E1F7EC0DFD1DBA
:100D6000208130E0AC014770552702C035952795AA
:100D70004A95E2F720FDDACFB5010E948008811084
:100D800087CFE114F10411F0D7011C92C80115C0FE
:100D9000422F469546954695D601A40FB11D422F88
:100DA00047708B0102C0000F111F4A95E2F7A8019E
:100DB0005C91452B4C93622EA2CFA096EFE00C9451
:100DC000BB08A0E0B0E0E7EEF6E00C949F086C01F1
:100DD000EB015A01FC0117821682512CF601E380C7
:100DE000FE01E3FC8591E3FE8191182FEF0188233A
:100DF00009F4EEC090E00E94F207892B21F0C601B1
:100E00000E947805EBCF153241F4FE01E3FC159109
:100E1000E3FE1191EF01153281F4C6010E9406082C
:100E200097FDD4C0412F50E09C013327241735078C
:100E3000A9F2B6010E948008CBC01A3239F4E3FC53
:100E40001591E3FE1191EF0101E001C000E0F12CEA
:100E500020ED210F2A3080F402606F2D70E080E0D9
:100E600090E040E20E945105F62EFE01E3FC159150
:100E7000E3FE1191EF01ECCF01FF03C0F11003C0BD
:100E8000A7C0FF24FA94183619F01C3651F010C090
:100E9000FE01E3FC1591E3FE1191EF01183641F4D8
:100EA00008600460FE01E3FC1591E3FE1191EF017F
:100EB000112309F48DC0612F70E08CED90E00E9449
:100EC000FB07892B09F484C000FD07C0F501808071
:100ED0009180C50102965C0102C0812C912C1E36C6
:100EE00051F4F6014681578160E070E0202FC40183
:100EF0000E94450573CF1336A9F401FD02C0FF24FB
:100F0000F394C6010E94060897FD60C08114910405
:100F100029F0F4018083C40101964C01FA94F11088
:100F2000F0CF50C01B3559F49E01A4016F2DC601AE
:100F30000E942306EC01892B09F044C03EC0C60183
:100F40000E94780597FD42C01F3661F128F41436DF
:100F500039F1193651F128C0133771F0153701F105
:100F600023C08114910429F0F4016082C401019628
:100F70004C01FA94FF2071F0C6010E9406083C0162
:100F800097FD08C00E94F207892B59F3B601C301EF
:100F90000E94800881149104A9F0F401108212C00B
:100FA000006203C0006101C00064202FA4016F2D06
:100FB000C6010E949105811105C0F60183818073ED
:100FC00029F406C000FD0ACF539408CF552019F02C
:100FD000852D90E002C08FEF9FEFCDB7DEB7EFE039
:100FE0000C94BB0891110C949908803219F0895027
:100FF0008550C8F70895FC010590061621F00020E1
:10100000D9F7C00108953197CF010895CF93DF93A9
:10101000EC012B8120FF33C026FF0AC02F7B2B83DE
:101020008E819F8101969F838E838A8190E029C063
:1010300022FF0FC0E881F9818081082E000C990BF6
:10104000009719F420622B831AC03196F983E88344
:101050000EC0EA85FB85099597FF09C02B81019693
:1010600011F080E201C080E1822B8B8308C02E81C9
:101070003F812F5F3F4F3F832E83992702C08FEF21
:101080009FEFDF91CF9108950F931F93CF93DF933D
:10109000FB01238121FD03C08FEF9FEF2CC022FFB6
:1010A00016C046815781248135814217530744F485
:1010B000A081B1819D012F5F3F4F318320838C93AD
:1010C000268137812F5F3F4F3783268314C08B01E2
:1010D000EC01FB010084F185E02D0995892BE1F6F7
:1010E000D80116968D919C911797019617969C930F
:1010F0008E931697CE01DF91CF911F910F91089596
:10110000FB01238120FF12C026FD10C08F3F3FEF5F
:10111000930761F082832F7D2064238326813781AA
:101120002150310937832683992708958FEF9FEF48
:1011300008959927882708952F923F924F925F92A2
:101140006F927F928F929F92AF92BF92CF92DF92D7
:10115000EF92FF920F931F93CF93DF93CDB7DEB73C
:10116000CA1BDB0B0FB6F894DEBF0FBECDBF0994D0
:101170002A88398848885F846E847D848C849B8427
:10118000AA84B984C884DF80EE80FD800C811B8135
:10119000AA81B981CE0FD11D0FB6F894DEBF0FBE64
:0A11A000CDBFED010895F894FFCFD4
:1011AA0048656C6C6F20776F726C64210D00257333
:0211BA00000033
:00000001FF
