:100000000C9434000C9449000C9449000C94490061
:100010000C9449000C9449000C9449000C9449003C
:100020000C9449000C9449000C9449000C9449002C
:100030000C9449000C9449000C9449000C9449001C
:100040000C9449000C9449000C9449000C9449000C
:100050000C9449000C9449000C9449000C944900FC
:100060000C9449000C94490011241FBECFEFD8E036
:10007000DEBFCDBF11E0A0E0B1E0E6EFF0E002C0EE
:1000800005900D92AA30B107D9F70E944B000C944D
:1000900079000C940000CF93DF93CDB7DEB72A9799
:1000A0000FB6F894DEBF0FBECDBF8091C100877E32
:1000B0008093C1008AE0E0E0F1E0DE01119601905A
:1000C0000D928A95E1F78FEF8AB99E01255F3F4F28
:1000D000FE01319681918BB94FEF83ED90E3415052
:1000E00080409040E1F700C00000E217F30791F76D
:0600F000EFCFF894FFCFF2
:0A00F600C0F9A4B0999202F880103E
:00000001FF
