:100000000C9475000C9487000C9487000C94870066
:100010000C9487000C9487000C9487000C94870044
:100020000C9487000C9487000C9487000C94870034
:100030000C9487000C9487000C9487000C94870024
:100040000C9487000C9487000C9487000C94870014
:100050000C9487000C9487000C9487000C94870004
:100060000C9487000C94870093149314D315831871
:100070008318D3159314531253105310531293141F
:10008000931407005712511293149314D315831825
:100090008318D315931453125310531053129314FF
:1000A0005312070057105110531253129314531048
:1000B00053129714D7159314531053129714D7153E
:1000C0009314531253105312811892149714D3158A
:1000D00083188318D31593145312531053105312CB
:1000E0009314531207005710511011241FBECFEF65
:1000F000D8E0DEBFCDBF21E0A0E0B1E001C01D929D
:10010000A130B207E1F70E9489000C94B9010C9468
:100110000000CF93DF9300D000D000D0CDB7DEB782
:10012000259A82E38093000152E3C52ED12CE12C65
:10013000F12C88E690E09E838D83ED81FE81859091
:1001400094909401329522952F7023273F70232796
:10015000220F331F9FE0892299248FEF881A980A73
:10016000A12CB12C2115310509F473C040E050E0F9
:1001700060E472E48FE090E00E945E0129013A01A0
:10018000A5019401C301B2010E944E0169837A83E3
:100190008B839C8360E472E48FE090E0A70196017A
:1001A0000E948001ACE3B0E00E949F0129813A8166
:1001B0004B815C810E945E01232B242B252B09F4AB
:1001C0003EC07694679457944794812C912C5401A7
:1001D0002D9AD301C20125E02A95F1F7000001977D
:1001E000A109B109C1F72D98D301C20125E02A95D3
:1001F000F1F700000197A109B109C1F78FEF881A43
:10020000980AA80AB80AC0900001D12CE12CF12C60
:1002100060E472E48FE090E0A70196010E94800103
:10022000ACE3B0E00E949F0129813A814B815C815F
:100230000E945E0182169306A406B50648F28D81DF
:100240009E8102969E838D838A5E904009F075CFD1
:1002500070CF60E472E48FE090E0A70196010E9405
:100260008001ACE3B0E00E949F01A50194010E94CF
:100270005E01211531054105510509F3DA01C90176
:1002800025E02A95F1F700000197A109B109C1F70E
:10029000C0900001D12CE12CF12CD1CFDB018F9348
:1002A0009F930E949F01BF91AF91A29F800D911DCE
:1002B000A39F900DB29F900D11240895A1E21A2ED4
:1002C000AA1BBB1BFD010DC0AA1FBB1FEE1FFF1FFA
:1002D000A217B307E407F50720F0A21BB30BE40B4A
:1002E000F50B661F771F881F991F1A9469F7609591
:1002F0007095809590959B01AC01BD01CF0108954B
:10030000052E97FB1EF400940E94970157FD07D01D
:100310000E945E0107FC03D04EF40C9497015095A7
:100320004095309521953F4F4F4F5F4F08959095E1
:100330008095709561957F4F8F4F9F4F08950E94D4
:10034000AA01A59F900DB49F900DA49F800D911DB3
:1003500011240895A29FB001B39FC001A39F700D07
:10036000811D1124911DB29F700D811D1124911DBD
:060370000895F894FFCF90
:00000001FF
