:100000000C9434000C9451000C9451000C94510049
:100010000C9451000C9451000C9451000C9451001C
:100020000C9451000C9451000C9451000C9451000C
:100030000C9451000C9451000C9451000C945100FC
:100040000C9451000C9451000C9451000C945100EC
:100050000C9451000C9451000C9451000C945100DC
:100060000C9451000C94510011241FBECFEFD8E026
:10007000DEBFCDBF11E0A0E0B1E0EEE1F3E002C0F1
:1000800005900D92A832B107D9F721E0A8E2B1E0BE
:1000900001C01D92AC33B207E1F70E9473000C94CB
:1000A0008D010C9400009091C00095FFFCCF8093CF
:1000B000C60080E090E008958091C00087FFFCCFEB
:1000C0008091C60090E0089587E690E09093C50087
:1000D0008093C4001092C00088E18093C10086E044
:1000E0008093C2000895CF93DF93CDB7DEB7A19779
:1000F0000FB6F894DEBF0FBECDBF2D9A549A569A14
:10010000559A579A87E690E09093C5008093C40073
:100110001092C00088E18093C10086E08093C20005
:1001200088E291E023E530E0309331012093300103
:100130002CE530E0309333012093320123E020930B
:100140002B01109235011092340190933B01809362
:100150003A0190933901809338019093370180934D
:10016000360181E2E0E0F1E0DE01119601900D92AE
:100170008A95E1F781E291E00E9421011D99FECF6D
:10018000FF24F39480E090E01D9B2DC0853FE1E0CB
:100190009E0728F0FF0C8D3D954008F0F3941BB8A6
:1001A00080E000E010E01D9B16C0EFE9FFE0319712
:1001B000F1F700C000000F5F1F4F0D3DF5E01F0776
:1001C00090F35E9A882309F10D3A2DE0120758F357
:1001D0005F9A1D99EACF0D3A1D4038F51BB880E0B3
:1001E00090E01D99D3CFEFE9FFE03197F1F700C020
:1001F00000000196853FF1E09F0730F25C9A8D3D4B
:1002000025E0920708F25D9ABFCFE1E0F0E0EC0F45
:10021000FD1FEF0DF11D8081082E000C990B0E942F
:100220001A0181E0FF24F394CFCF80E290E00E9496
:100230001A01D4CF60913801709139010E945101A7
:1002400008950F931F93CF93DF93E0913801F091BE
:100250003901238121FF1BC08C01D0E0C0E0F801EF
:1002600081918F016091380170913901DB011896FD
:10027000ED91FC911997882331F00995892B79F339
:10028000DFEFCFEFECCF8AE00995892B19F08FEFE4
:100290009FEF02C08D2F9C2FDF91CF911F910F9167
:1002A00008950F931F93CF93DF93FB01238121FDCB
:1002B00003C08FEF9FEF2CC022FF16C046815781ED
:1002C000248135814217530744F4A081B1819D01F7
:1002D0002F5F3F4F318320838C93268137812F5F9F
:1002E0003F4F3783268314C08B01EC01FB01008450
:1002F000F185E02D0995892BE1F6D80116968D91AF
:100300009C911797019617969C938E931697CE0102
:0E031000DF91CF911F910F910895F894FFCFC8
:10031E002020657469616E6D73757277646B676F9B
:10032E00687666206C20706A627863797A71202014
:08033E0020574954414D0D0008
:00000001FF
