S01000007A6164616E6965332E7372656305
S11300000C9434000C943E000C943E000C943E007E
S11300100C943E000C943E000C943E000C943E0064
S11300200C943E000C943E000C943E000C943E0054
S11300300C943E000C943E000C943E000C943E0044
S11300400C943E000C943E000C943E000C943E0034
S11300500C943E000C943E000C943E000C943E0024
S11300600C943E000C943E0011241FBECFEFD8E048
S1130070DEBFCDBF0E9464000C94A6000C94000067
S113008026B130E0082E02C0359527950A94E2F790
S113009020FF02C080E008952FEF39EF40E02150A7
S11300A030404040E1F700C0000026B130E0A90133
S11300B002C0559547958A95E2F7CA018170992740
S11300C051E0852781700895409A429A419A8AB1F5
S11300D08FEF8AB98091C100877E8093C10080E050
S11300E0309B16C0319B21C03299FACF2FEF39EFE4
S11300F090E0215030409040E1F700C00000329978
S1130100EFCF8150982F969598279BB93099EACFD5
S11301102FEF39EF90E0215030409040E1F700C0DC
S113012000003099DFCF1BB8DBCF2FEF39EF90E021
S1130130215030409040E1F700C000003199D4CF05
S11301408F5F982F969598279BB9CACFF894FFCFC5
S9030000FC
