:100000000C9434000C943E000C943E000C943E0082
:100010000C943E000C943E000C943E000C943E0068
:100020000C943E000C943E000C943E000C943E0058
:100030000C943E000C943E000C943E000C943E0048
:100040000C943E000C943E000C943E000C943E0038
:100050000C943E000C943E000C943E000C943E0028
:100060000C943E000C943E0011241FBECFEFD8E04C
:10007000DEBFCDBF0E9440000C94B5000C94000080
:10008000CF93DF93CDB7DEB7D2500FB6F894DEBF73
:100090000FBECDBF9E012F5F3F4F80E092E0F90180
:1000A000AC01119241505040E1F788EE93E09A8301
:1000B00089832D9A579A1D99FECF71E060E040E048
:1000C00050E01D9B26C0E1E0E70FF0E0EE0FFF1FC0
:1000D000E20FF31FDA01AA0FBB1FA20FB31F14C058
:1000E0008FE99FE00197F1F700C0000080819181C6
:1000F0000196918380838D919C9111970197119620
:100100009C938E93892B51F11D99EACF7E5F1D99A7
:10011000DACF8FE99FE00197F1F700C00000E72FE9
:10012000F0E0EE0FFF1FE20FF31F80819181019637
:1001300091838083FA01EE0FFF1FE20FF31F80818E
:100140009181019791838083892B09F0BACF8BB17C
:1001500080588BB96F5F462F50E0B3CF8BB180587A
:0E0160008BB96F5F462F50E0B5CFF894FFCFFC
:00000001FF
