:100000000C9434000C943E000C943E000C943E0082
:100010000C943E000C943E000C943E000C943E0068
:100020000C943E000C943E000C943E000C943E0058
:100030000C943E000C943E000C943E000C943E0048
:100040000C943E000C943E000C943E000C943E0038
:100050000C943E000C943E000C943E000C943E0028
:100060000C943E000C943E0011241FBECFEFD8E04C
:10007000DEBFCDBF0E9464000C94BD000C94000054
:1000800026B130E0082E02C0359527950A94E2F794
:1000900020FF02C080E008952FEF39EF40E02150AB
:1000A00030404040E1F700C0000026B130E0A90137
:1000B00002C0559547958A95E2F7CA018170992744
:1000C00051E085278170089588B1876088B98AB129
:1000D0008FEF8AB98091C100877E8093C10030E0A4
:1000E00020E090E080E0309B09C090E0319B16C09A
:1000F00020E0329B28C030E03099F7CF4FEF59EF26
:1001000060E0415050406040E1F700C0000030998D
:10011000ECCF992371F191E03199EACF4FEF59EF8C
:1001200060E0415050406040E1F700C0000031996C
:10013000DFCF211105C08F5F282F269528272BB9E7
:1001400021E03299D8CF4FEF59EF60E04150504055
:100150006040E1F700C000003299CDCF332311F0A9
:1001600031E0C1CF8150382F369538273BB931E087
:0E017000BACF1BB891E080E0B9CFF894FFCF72
:00000001FF
