:100000000C9449000C9466000C9466000C946600F5
:100010000C9466000C9466000C9466000C946600C8
:100020000C9466000C9466000C9466000C946600B8
:100030000C9466000C9466000C9466000C946600A8
:100040000C9466000C9466000C9466000C94660098
:100050000C9466000C9466000C9466000C94660088
:100060000C9466000C946600000001000100020080
:100070000300050007000B000F0016001F002D00F5
:100080003F005A007F00B500FF006A01FF01D40263
:10009000FF0311241FBECFEFD8E0DEBFCDBF11E0BC
:1000A000A0E0B1E0EEE7F8E002C005900D92AE31BD
:1000B000B107D9F721E0AEE1B1E001C01D92A23352
:1000C000B207E1F70E94A2000C943D040C940000DA
:1000D0009091C00095FFFCCF8093C60080E090E037
:1000E00008958091C00087FFFCCF8091C60090E00A
:1000F000089587E690E09093C5008093C40088E15E
:100100008093C10086E08093C200089580E48093CC
:100110007C0081E080937E00EAE7F0E087E0808366
:1001200080818068808308958FEF93E090938700AB
:100130008093860082E88093800089E1809381002B
:10014000219A089587E690E09093C5008093C400BB
:1001500088E18093C10086E08093C2008EE191E047
:1001600028E630E0309327012093260121E730E094
:10017000309329012093280123E02093210110923C
:100180002B0110922A0190933101809330019093BA
:100190002F0180932E0190932D0180932C0180E4F8
:1001A00080937C0081E080937E0087E080937A00DA
:1001B00080917A00806880937A008FEF93E090932B
:1001C00087008093860082E88093800089E1809395
:1001D0008100219A109289001092880004E110E0B9
:1001E000C0E0D1E080917A00806480937A008091B1
:1001F0007A0084FFFCCF80917A00806180937A003E
:10020000E0907800F09079008AE1E81684E0F80642
:1002100008F040C0970136952795ABE7B4E10E94FE
:10022000500196958795F801E81BF90BEE0FFF1F1B
:10023000E859FF4F25913491809178009091790091
:100240003F932F939F938F93DF93CF930E945F01F0
:100250000F900F900F900F900F900F908AE1E8167B
:1002600084E0F806D0F4970136952795ABE7B4E122
:100270000E94500196958795F801E81BF90BEE0F47
:10028000FF1FE859FF4F85919491909389008093C7
:100290008800A8CFE0E0F0E0C9CFE0E0F0E0EFCFE9
:1002A000A29FB001B39FC001A39F700D811D1124B7
:1002B000911DB29F700D811D1124911D0895A0E024
:1002C000B0E0E5E6F1E00C941604AE014B5F5F4F41
:1002D000FA0161917191AF0180912E0190912F01EE
:1002E0000E947501E2E00C943204ABE0B0E0EBE771
:1002F000F1E00C9406046C017B018A01FC01178279
:100300001682838181FFCCC1CE0101963C01F601AA
:100310009381F70193FD859193FF81917F0188235C
:1003200009F4BAC1853239F493FD859193FF819127
:100330007F01853229F4B60190E00E946C03E7CF7B
:10034000912C212C312CFFE1F315D8F08B3279F070
:1003500038F4803279F08332A1F4232D20611DC05E
:100360008D3261F0803369F4232D216016C0832D16
:100370008260382EE32DE4603E2E2AC0F32DF86013
:100380001DC037FC2DC020ED280F2A3040F08E32E2
:10039000B9F436FC81C1232D2064322E19C036FEFB
:1003A00006C08AE0989E200D1124922E11C0EAE02A
:1003B0002E9E200D1124222EF32DF0623F2E08C018
:1003C0008C3621F4832D8068382E02C0883641F4A3
:1003D000F70193FD859193FF81917F018111B3CF47
:1003E000982F9F7D9554933028F40C5F1F4F9FE307
:1003F00099830DC0833631F0833771F0833509F06E
:1004000059C021C0F801808189830E5F1F4F882465
:100410008394912C530113C02801F2E04F0E511C1C
:10042000F801A080B18036FE03C0692D70E002C0E3
:100430006FEF7FEFC5010E9461034C018201F32D34
:10044000FF773F2E16C0280122E0420E511CF80112
:10045000A080B18036FE03C0692D70E002C06FEF4E
:100460007FEFC5010E9456034C01F32DF0683F2E2B
:10047000820133FC1BC0822D90E088169906B0F4EF
:10048000B60180E290E00E946C032A94F4CFF5015B
:1004900037FC859137FE81915F01B60190E00E94A3
:1004A0006C0321102A9421E0821A9108811491048E
:1004B00071F7E8C0843611F0893641F5F80137FE4E
:1004C00007C060817181828193810C5F1F4F08C0DA
:1004D00060817181072E000C880B990B0E5F1F4FF6
:1004E000F32DFF763F2E97FF09C09095809570956C
:1004F00061957F4F8F4F9F4FF0683F2E2AE030E08D
:10050000A3010E94A803882E861845C0853731F4C0
:10051000232D2F7EB22E2AE030E025C0932D997F27
:10052000B92E8F36C1F018F4883579F0B5C0803710
:1005300019F0883721F0B0C0E92FE061BE2EB4FE7B
:100540000DC0FB2DF460BF2E09C034FE0AC0292F58
:100550002660B22E06C028E030E005C020E130E081
:1005600002C020E132E0F801B7FE07C0608171816E
:10057000828193810C5F1F4F06C06081718180E092
:1005800090E00E5F1F4FA3010E94A803882E8618DB
:10059000FB2DFF773F2E36FE0DC0232D2E7FA22E82
:1005A000891458F434FE0BC032FC09C0832D8E7EB2
:1005B000A82E05C0B82CA32C03C0B82C01C0B92CA0
:1005C000A4FE0FC0FE01E80DF11D8081803321F4EF
:1005D0009A2D997EA92E09C0A2FE06C0B394B394A9
:1005E00004C08A2D867809F0B394A3FC11C0A0FE44
:1005F00006C0B21488F4280C922C9B180EC0B214BA
:1006000060F4B60180E290E00E946C03B394F7CFEF
:10061000B21418F42B1802C0982C212CA4FE10C080
:10062000B60180E390E00E946C03A2FE17C0A1FC1B
:1006300003C088E790E002C088E590E0B6010CC0F6
:100640008A2D867859F0A1FE02C08BE201C080E2BB
:10065000A7FC8DE2B60190E00E946C03891438F487
:10066000B60180E390E00E946C039A94F7CF8A94DD
:10067000F301E80DF11D8081B60190E00E946C034A
:100680008110F5CF222009F442CEB60180E290E03D
:100690000E946C032A94F6CFF6018681978102C0EE
:1006A0008FEF9FEF2B96E2E10C942204FC01059062
:1006B000615070400110D8F7809590958E0F9F1F64
:1006C0000895FC016150704001900110D8F78095A9
:1006D00090958E0F9F1F08950F931F93CF93DF93D5
:1006E000FB01238121FD03C08FEF9FEF2CC022FF70
:1006F00016C046815781248135814217530744F43F
:10070000A081B1819D012F5F3F4F318320838C9366
:10071000268137812F5F3F4F3783268314C08B019B
:10072000EC01FB010084F185E02D0995892BE1F6B0
:10073000D80116968D919C911797019617969C93C8
:100740008E931697CE01DF91CF911F910F9108954F
:10075000FA01AA27283051F1203181F1E8946F93F2
:100760006E7F6E5F7F4F8F4F9F4FAF4FB1E03ED098
:10077000B4E03CD0670F781F891F9A1FA11D680F36
:10078000791F8A1F911DA11D6A0F711D811D911D69
:10079000A11D20D009F468943F912AE0269F1124DE
:1007A0003019305D3193DEF6CF010895462F477042
:1007B000405D4193B3E00FD0C9F7F6CF462F4F709D
:1007C000405D4A3318F0495D31FD4052419302D0FB
:1007D000A9F7EACFB4E0A6959795879577956795A1
:1007E000BA95C9F700976105710508959B01AC01A1
:1007F0000A2E06945795479537952795BA95C9F7C8
:10080000620F731F841F951FA01D08952F923F92A2
:100810004F925F926F927F928F929F92AF92BF9210
:10082000CF92DF92EF92FF920F931F93CF93DF93BC
:10083000CDB7DEB7CA1BDB0B0FB6F894DEBF0FBE19
:10084000CDBF09942A88398848885F846E847D8466
:100850008C849B84AA84B984C884DF80EE80FD8068
:100860000C811B81AA81B981CE0FD11D0FB6F894DE
:0E087000DEBF0FBECDBFED010895F894FFCF9F
:10087E004F70C3B372203D2025752C2077617274A2
:0E088E006FC59BC487203D2025750A0D000014
:00000001FF
