:100000000C9434000C9451000C9451000C94510049
:100010000C9451000C9451000C9451000C9451001C
:100020000C9451000C9451000C9451000C9451000C
:100030000C9451000C9451000C9451000C945100FC
:100040000C9451000C9451000C9451000C945100EC
:100050000C9451000C9451000C9451000C945100DC
:100060000C9451000C94510011241FBECFEFD8E026
:10007000DEBFCDBF11E0A0E0B1E0E4E4F3E102C0F7
:1000800005900D92A636B107D9F721E0A6E6B1E0BA
:1000900001C01D92AA37B207E1F70E9477000C94C5
:1000A000A0090C9400009091C00095FFFCCF8093B4
:1000B000C60080E090E008958091C00087FFFCCFEB
:1000C0008091C60090E0089587E690E09093C50087
:1000D0008093C4001092C00088E18093C10086E044
:1000E0008093C200089581E0809381000895CF93AA
:1000F000DF93CDB7DEB7EF970FB6F894DEBF0FBE34
:10010000CDBF87E690E09093C5008093C400109225
:10011000C00088E18093C10086E08093C20086E63B
:1001200091E023E530E030936F0120936E012CE5E0
:1001300030E0309371012093700123E02093690136
:10014000109273011092720190937901809378015B
:100150009093770180937601909375018093740159
:1001600081E080938100809184009091850080904F
:10017000840090908500881A990A89E0682E81E0B1
:10018000782E9EE5492E91E0592E80E091E00E9464
:10019000DF0680918400909185009EAB8DAB9FAD72
:1001A0008EAD890F8DAF80918400909185002DA92F
:1001B0003EA9821B930B9EAB8DAB809184009091E6
:1001C00085009CAB8BAB8FAD9EAD899F802D11249C
:1001D0008DAF80918400909185002BA93CA9821B52
:1001E000930B9CAB8BAB80918400909185009AAB74
:1001F00089AB8FAD6EAD082E000C990B062E000C4E
:10020000770B0E9432036DAF80918400909185003E
:1002100029A93AA9821B930B9AAB89AB49A95AA980
:100220002BA93CA98DA99EA9481959095F934F9301
:10023000281939093F932F93881999099F938F9310
:100240007F926F920E94C90689E391E00E94DF06C7
:1002500080918400909185009EAB8DAB2BAD3CAD21
:1002600089AD9AAD820F931F98AF8FAB80918400B8
:10027000909185002DA93EA9821B930B9EAB8DAB5F
:1002800080918400909185009CAB8BAB4BAD5CADB5
:1002900029AD3AAD429FC001439F900D529F900DF2
:1002A000112498AF8FAB80918400909185002BA989
:1002B0003CA9821B930B9CAB8BAB809184009091EB
:1002C00085009AAB89AB8BAD9CAD69AD7AAD0E94D0
:1002D000320378AF6FAB809184009091850029A99B
:1002E0003AA9821B930B9AAB89AB49A95AA92BA9AE
:1002F0003CA98DA99EA9481959095F934F932819C4
:1003000039093F932F93881999099F938F937F926F
:100310006F920E94C90683E491E00E94DF068091FB
:100320008400909185009EAB8DAB4DA55EA56FA519
:1003300078A989A59AA5ABA5BCA5840F951FA61F72
:10034000B71F8DA39EA3AFA3B8A7809184009091FF
:1003500085002DA93EA9821B930B9EAB8DAB80918E
:100360008400909185009CAB8BAB2DA53EA54FA53D
:1003700058A969A57AA58BA59CA50E9422036DA307
:100380007EA38FA398A780918400909185002BA9CC
:100390003CA9821B930B9CAB8BAB8091840090910A
:1003A00085009AAB89AB6DA57EA58FA598A929A5D7
:1003B0003AA54BA55CA50E9446032DA33EA34FA3DF
:1003C00058A7809184009091850029A93AA9821BA1
:1003D000930B9AAB89AB49A95AA92BA93CA98DA922
:1003E0009EA9481959095F934F93281939093F93DA
:1003F0002F93881999099F938F937F926F920E94F0
:10040000C9068DE491E00E94DF06809184009091FE
:1004100085009EAB8DAB29893A894B895C896D89B2
:100420007E898F89988DA984BA84CB84DC84ED84FD
:10043000FE840F8518890E94A00429833A834B8388
:100440005C836D837E838F839887809184009091F5
:1004500085002DA93EA9821B930B9EAB8DAB80918D
:100460008400909185009CAB8BAB29893A894B899C
:100470005C896D897E898F89988DA984BA84CB84A3
:10048000DC84ED84FE840F8518890E947003298323
:100490003A834B835C836D837E838F8398878091BF
:1004A0008400909185002BA93CA9821B930B9CABE7
:1004B0008BAB80918400909185009AAB89AB2989A0
:1004C0003A894B895C896D897E898F89988DA98449
:1004D000BA84CB84DC84ED84FE840F8518890E9465
:1004E000CB0329833A834B835C836D837E838F8325
:1004F0009887809184009091850029A93AA9821B50
:10050000930B9AAB89AB49A95AA92BA93CA98DA9F0
:100510009EA9481959095F934F93281939093F93A8
:100520002F93881999099F938F937F926F920E94BE
:10053000C9060FB6F894DEBF0FBECDBF87E591E0C8
:100540000E94DF0680918400909185009EAB8DAB68
:1005500069A17AA18BA19CA12D8D3E8D4F8D58A1B3
:100560000E94EF04698F7A8F8B8F9C8F809184001B
:10057000909185002DA93EA9821B930B9EAB8DAB5C
:1005800080918400909185009CAB8BAB69A17AA18E
:100590008BA19CA12D8D3E8D4F8D58A10E941E06D2
:1005A000698F7A8F8B8F9C8F8091840090918500CA
:1005B0002BA93CA9821B930B9CAB8BAB8091840035
:1005C000909185009AAB89AB69A17AA18BA19CA17E
:1005D0002D8D3E8D4F8D58A10E945B05698F7A8FBE
:1005E0008B8F9C8F809184009091850029A93AA9D6
:1005F000821B930B9AAB89AB49A95AA92BA93CA999
:100600008DA99EA9481959095F934F932819390953
:100610003F932F93881999099F938F937F926F929D
:100620000E94C90680917401909175010E948B0609
:100630005F924F920E94C9060FB6F894DEBF0FBEBC
:10064000CDBFA3CDDB018F939F930E946503BF9124
:10065000AF91A29F800D911DA39F900DB29F900D11
:100660001124089597FB072E16F4009407D077FD08
:1006700009D00E94A90407FC05D03EF4909581950D
:100680009F4F0895709561957F4F0895052E97FBB4
:100690001EF400940E945D0357FD07D00E94BD0424
:1006A00007FC03D04EF40C945D03509540953095B3
:1006B00021953F4F4F4F5F4F0895909580957095CE
:1006C00061957F4F8F4F9F4F08950E94DF04A59F34
:1006D000900DB49F900DA49F800D911D112408953D
:1006E000DF93CF931F930F939A9DF02D219FF00DD1
:1006F0008B9DF00D8A9DE02DF10D039FF00D029F63
:10070000E00DF11D4E9DE00DF11D5E9DF00D4F9D24
:10071000F00D7F936F93BF92AF925F934F93D5018C
:100720000E94DF048B01AC01D7010E94DF04EB01C2
:10073000E80FF91FD6010E94C0032F913F91D60107
:100740000E94DF04C60FD71FE81FF91FAF91BF91AA
:100750000E94C0032F913F910E94DF04C60FD71F54
:10076000E81FF91FD6010E94DF04E60FF71F98016A
:10077000BE01CF0111240F911F91CF91DF910895F8
:100780000E94DF04460F571FC81FD91F08F4319677
:100790000895689401C0E894F92FF12B12F00C949D
:1007A000FD03A0E0B0E0E7EDF3E00C946F04092E48
:1007B000059422F40E945904112392F4F0E80F26C4
:1007C000FFEFE094F09400951095B094C094D0940D
:1007D000A194BF0ACF0ADF0AEF0AFF0A0F0B1F0B13
:1007E0000E94080407FC0E945904CDB7DEB7ECE074
:1007F0000C948B04689401C0E8948F929F92CF93DD
:10080000DF930E940804DF91CF919F908F9008950D
:1008100088249924F401E401B0E49F93AA279A154F
:100820008B049C04ED05FE05CF05D007A10798F4C5
:10083000AD2FDC2FCF2FFE2FE92D982C892E982F4E
:10084000872F762F652F542F432F322F2227B85012
:1008500031F7BF9127C01B2EBF91BB27220F331F3B
:10086000441F551F661F771F881F991F881C991CDE
:10087000EE1FFF1FCC1FDD1FAA1FBB1F8A149B0486
:10088000EC05FD05CE05DF05A007B10748F08A1885
:100890009B08EC09FD09CE09DF09A00BB10B216013
:1008A0001A94E1F62EF49401AF01BE01CD01000CC3
:1008B00008956095709580959095309540955095E8
:1008C00021953F4F4F4F5F4F6F4F7F4F8F4F9F4F40
:1008D00008952F923F924F925F926F927F928F92E4
:1008E0009F92AF92BF92CF92DF92EF92FF920F93BF
:1008F0001F93CF93DF93CDB7DEB7CA1BDB0B0FB6C9
:10090000F894DEBF0FBECDBF09942A883988488885
:100910005F846E847D848C849B84AA84B984C8841B
:10092000DF80EE80FD800C811B81AA81B981CE0F12
:10093000D11D0FB6F894DEBF0FBECDBFED010895F7
:100940002A0D3B1D4C1D5D1D6E1D7F1D801F911FBF
:100950000895AA1BBB1B51E107C0AA1FBB1FA61706
:10096000B70710F0A61BB70B881F991F5A95A9F758
:1009700080959095BC01CD010895A1E21A2EAA1B85
:10098000BB1BFD010DC0AA1FBB1FEE1FFF1FA2173F
:10099000B307E407F50720F0A21BB30BE40BF50B3C
:1009A000661F771F881F991F1A9469F760957095C5
:1009B000809590959B01AC01BD01CF010895A29F48
:1009C000B001B39FC001A39F700D811D1124911D23
:1009D000B29F700D811D1124911D08955058BB27A1
:1009E000AA270E9406050C94E4050E94D60538F05B
:1009F0000E94DD0520F039F49F3F19F426F40C9491
:100A0000D3050EF4E095E7FB0C94CD05E92F0E9489
:100A1000F50558F3BA17620773078407950720F0A6
:100A200079F4A6F50C9417060EF4E0950B2EBA2F68
:100A3000A02D0B01B90190010C01CA01A0011124E4
:100A4000FF27591B99F0593F50F4503E68F11A1690
:100A5000F040A22F232F342F4427585FF3CF469521
:100A600037952795A795F0405395C9F77EF41F1643
:100A7000BA0B620B730B840BBAF09150A1F0FF0F0D
:100A8000BB1F661F771F881FC2F70EC0BA0F621FF9
:100A9000731F841F48F4879577956795B795F795E9
:100AA0009E3F08F0B0CF9395880F08F09927EE0F7E
:100AB0009795879508950E946F050C94E4050E9410
:100AC000DD0558F00E94D60540F029F45F3F29F07B
:100AD0000C94CD0551110C9418060C94D3050E946A
:100AE000F50568F39923B1F3552391F3951B550B45
:100AF000BB27AA2762177307840738F09F5F5F4FF1
:100B0000220F331F441FAA1FA9F335D00E2E3AF02F
:100B1000E0E832D091505040E695001CCAF72BD047
:100B2000FE2F29D0660F771F881FBB1F2617370798
:100B30004807AB07B0E809F0BB0B802DBF01FF27CA
:100B400093585F4F3AF09E3F510578F00C94CD05D5
:100B50000C9418065F3FE4F3983ED4F3869577959E
:100B60006795B795F7959F5FC9F7880F911D969583
:100B7000879597F90895E1E0660F771F881FBB1FDF
:100B8000621773078407BA0720F0621B730B840B8C
:100B9000BA0BEE1F88F7E095089597F99F6780E8F4
:100BA00070E060E008959FEF80EC089500240A94BF
:100BB0001616170618060906089500240A94121638
:100BC0001306140605060895092E0394000C11F46B
:100BD000882352F0BB0F40F4BF2B11F460FF04C018
:100BE0006F5F7F4F8F4F9F4F089557FD9058440F71
:100BF000551F59F05F3F71F04795880F97FB991F7C
:100C000061F09F3F79F08795089512161306140638
:100C1000551FF2CF4695F1DF08C0161617061806C5
:100C2000991FF1CF86957105610508940895E894A0
:100C3000BB2766277727CB0197F908950E943106D5
:100C40000C94E4050E94D60538F00E94DD0520F0E2
:100C5000952311F00C94CD050C94D30511240C941C
:100C600018060E94F50570F3959FC1F3950F50E0AB
:100C7000551F629FF001729FBB27F00DB11D639F4E
:100C8000AA27F00DB11DAA1F649F6627B00DA11DF4
:100C9000661F829F2227B00DA11D621F739FB00D9A
:100CA000A11D621F839FA00D611D221F749F33270A
:100CB000A00D611D231F849F600D211D822F762FA3
:100CC0006A2F11249F5750409AF0F1F088234AF080
:100CD000EE0FFF1FBB1F661F771F881F91505040EC
:100CE000A9F79E3F510580F00C94CD050C94180691
:100CF0005F3FE4F3983ED4F3869577956795B79573
:100D0000F795E7959F5FC1F7FE2B880F911D96958C
:100D1000879597F90895CF93DF93EC012B8120FFFE
:100D200033C026FF0AC02F7B2B838E819F810196C3
:100D30009F838E838A8190E029C022FF0FC0E881C3
:100D4000F9818081082E000C990B009719F420621C
:100D50002B831AC03196F983E8830EC0EA85FB85A0
:100D6000099597FF09C02B81019611F080E201C01F
:100D700080E1822B8B8308C02E813F812F5F3F4F04
:100D80003F832E83992702C08FEF9FEFDF91CF9192
:100D90000895A0E0B0E0EFECF6E00C947904AE0129
:100DA0004B5F5F4FFA0161917191AF0180917601C4
:100DB000909177010E940F07E2E00C9495040F9345
:100DC0001F93CF93DF93E0917601F0917701238118
:100DD00021FF1BC08C01D0E0C0E0F80181918F01A0
:100DE0006091760170917701DB011896ED91FC918D
:100DF0001997882331F00995892B79F3DFEFCFEF2D
:100E0000ECCF8AE00995892B19F08FEF9FEF02C094
:100E10008D2F9C2FDF91CF911F910F910895ABE003
:100E2000B0E0E5E1F7E00C9469046C017B018A0114
:100E3000FC0117821682838181FFCCC1CE0101960D
:100E40003C01F6019381F70193FD859193FF819118
:100E50007F01882309F4BAC1853239F493FD859165
:100E600093FF81917F01853229F4B60190E00E94C1
:100E70000609E7CF912C212C312CFFE1F315D8F096
:100E80008B3279F038F4803279F08332A1F4232D5B
:100E900020611DC08D3261F0803369F4232D216003
:100EA00016C0832D8260382EE32DE4603E2E2AC0CA
:100EB000F32DF8601DC037FC2DC020ED280F2A301F
:100EC00040F08E32B9F436FC81C1232D2064322EDD
:100ED00019C036FE06C08AE0989E200D1124922E7D
:100EE00011C0EAE02E9E200D1124222EF32DF06277
:100EF0003F2E08C08C3621F4832D8068382E02C026
:100F0000883641F4F70193FD859193FF81917F012C
:100F10008111B3CF982F9F7D9554933028F40C5FA7
:100F20001F4F9FE399830DC0833631F0833771F0F3
:100F3000833509F059C021C0F801808189830E5F93
:100F40001F4F88248394912C530113C02801F2E091
:100F50004F0E511CF801A080B18036FE03C0692DF0
:100F600070E002C06FEF7FEFC5010E94FB084C01EB
:100F70008201F32DFF773F2E16C0280122E0420E9A
:100F8000511CF801A080B18036FE03C0692D70E0CD
:100F900002C06FEF7FEFC5010E94F0084C01F32DF6
:100FA000F0683F2E820133FC1BC0822D90E0881632
:100FB0009906B0F4B60180E290E00E9406092A94F6
:100FC000F4CFF50137FC859137FE81915F01B601C1
:100FD00090E00E94060921102A9421E0821A9108CB
:100FE0008114910471F7E8C0843611F0893641F517
:100FF000F80137FE07C060817181828193810C5FA7
:101000001F4F08C060817181072E000C880B990B5F
:101010000E5F1F4FF32DFF763F2E97FF09C090956F
:101020008095709561957F4F8F4F9F4FF0683F2E51
:101030002AE030E0A3010E944209882E861845C0AC
:10104000853731F4232D2F7EB22E2AE030E025C0E3
:10105000932D997FB92E8F36C1F018F4883579F029
:10106000B5C0803719F0883721F0B0C0E92FE061B2
:10107000BE2EB4FE0DC0FB2DF460BF2E09C034FEA1
:101080000AC0292F2660B22E06C028E030E005C035
:1010900020E130E002C020E132E0F801B7FE07C0F5
:1010A00060817181828193810C5F1F4F06C06081D6
:1010B000718180E090E00E5F1F4FA3010E94420902
:1010C000882E8618FB2DFF773F2E36FE0DC0232D70
:1010D0002E7FA22E891458F434FE0BC032FC09C0B6
:1010E000832D8E7EA82E05C0B82CA32C03C0B82C4F
:1010F00001C0B92CA4FE0FC0FE01E80DF11D8081D6
:10110000803321F49A2D997EA92E09C0A2FE06C033
:10111000B394B39404C08A2D867809F0B394A3FCE9
:1011200011C0A0FE06C0B21488F4280C922C9B18A3
:101130000EC0B21460F4B60180E290E00E9406098D
:10114000B394F7CFB21418F42B1802C0982C212CAA
:10115000A4FE10C0B60180E390E00E940609A2FE42
:1011600017C0A1FC03C088E790E002C088E590E0CA
:10117000B6010CC08A2D867859F0A1FE02C08BE220
:1011800001C080E2A7FC8DE2B60190E00E94060952
:10119000891438F4B60180E390E00E9406099A941D
:1011A000F7CF8A94F301E80DF11D8081B60190E03C
:1011B0000E9406098110F5CF222009F442CEB60123
:1011C00080E290E00E9406092A94F6CFF60186811B
:1011D000978102C08FEF9FEF2B96E2E10C9485047C
:1011E000FC010590615070400110D8F780959095F2
:1011F0008E0F9F1F0895FC016150704001900110F7
:10120000D8F7809590958E0F9F1F08950F931F9389
:10121000CF93DF93FB01238121FD03C08FEF9FEF6D
:101220002CC022FF16C04681578124813581421788
:10123000530744F4A081B1819D012F5F3F4F31835B
:1012400020838C93268137812F5F3F4F37832683FE
:1012500014C08B01EC01FB010084F185E02D0995A0
:10126000892BE1F6D80116968D919C9117970196DE
:1012700017969C938E931697CE01DF91CF911F9175
:101280000F910895FA01AA27283051F1203181F1F8
:10129000E8946F936E7F6E5F7F4F8F4F9F4FAF4F7E
:1012A000B1E03ED0B4E03CD0670F781F891F9A1F91
:1012B000A11D680F791F8A1F911DA11D6A0F711D45
:1012C000811D911DA11D20D009F468943F912AE051
:1012D000269F11243019305D3193DEF6CF01089539
:1012E000462F4770405D4193B3E00FD0C9F7F6CF6A
:1012F000462F4F70405D4A3318F0495D31FD405232
:10130000419302D0A9F7EACFB4E0A69597958795C7
:1013100077956795BA95C9F70097610571050895A6
:101320009B01AC010A2E0694579547953795279552
:10133000BA95C9F7620F731F841F951FA01D0895EA
:04134000F894FFCF4F
:1013440075696E74385F740D00446F646177616E03
:101354006965203D2025752C206D6E6F7A656E6958
:1013640065203D2025752C20647A69656C656E695D
:1013740065203D2025750D0A0075696E7431365F50
:10138400740D0075696E7433325F740D0075696E87
:101394007436345F740D00666C6F61740D001B5BF2
:0613A400324A1B5B480009
:00000001FF
