:100000000C9434000C9451000C9451000C94510049
:100010000C9451000C9451000C9451000C9451001C
:100020000C9451000C9481000C9451000C945100DC
:100030000C9451000C9451000C9451000C945100FC
:100040000C9451000C9451000C9451000C945100EC
:100050000C9451000C9451000C9451000C945100DC
:100060000C9451000C94510011241FBECFEFD8E026
:10007000DEBFCDBF11E0A0E0B1E0E4EAF2E002C0F3
:1000800005900D92A430B107D9F721E0A4E0B1E0CA
:1000900001C01D92A831B207E1F70E948B000C94B9
:1000A00050010C9400009091C00095FFFCCF80930C
:1000B000C60080E090E008958091C00087FFFCCFEB
:1000C0008091C60090E0089580E190E09093C50093
:1000D0008093C4001092C00088E18093C10086E044
:1000E0008093C20008958091C00086FFFCCF0895E0
:1000F00087E08093B100E0E7F0E080818160808359
:1001000008951F920F920FB60F9211240F900FBEF9
:100110000F901F90189580E190E09093C500809318
:10012000C4001092C00088E18093C10086E08093F3
:10013000C20084E091E023E530E030930D0120938C
:100140000C012CE530E030930F0120930E0123E0E9
:100150002093070110921101109210019093170142
:1001600080931601909315018093140190931301CD
:100170008093120187E08093B100809170008160CC
:100180008093700083B7817F866083BF78942091CD
:1001900014013091150143E050E061E070E080E02F
:1001A00091E00E94E5008091C00086FFFCCF8FE3C4
:1001B00096E00197F1F700C0000083B7816083BF2C
:1001C000889583B78E7F83BFE2CFA0E0B0E0EBEEEF
:1001D000F0E00C941F015B014A017901D9011396EB
:1001E0002C9121FF1DC0C0E0D0E0C815D905D9F081
:1001F0008C016C01CA0CDB1CC8010C151D0571F0CB
:100200000F5F1F4FD7011896ED91FC911997B70119
:10021000DC018C910995892B79F305C02196E5CFF6
:1002200080E090E001C0CE01CDB7DEB7ECE00C94E9
:100230003B012F923F924F925F926F927F928F92EB
:100240009F92AF92BF92CF92DF92EF92FF920F9365
:100250001F93CF93DF93CDB7DEB7CA1BDB0B0FB66F
:10026000F894DEBF0FBECDBF09942A88398848882C
:100270005F846E847D848C849B84AA84B984C884C2
:10028000DF80EE80FD800C811B81AA81B981CE0FB9
:10029000D11D0FB6F894DEBF0FBECDBFED0108959E
:0402A000F894FFCF00
:0402A400580D0A00E7
:00000001FF
