S01000007A6164616E6965312E7372656307
S11300000C9434000C9446000C9446000C94460066
S11300100C9446000C9446000C9446000C94460044
S11300200C9446000C9446000C9446000C94460034
S11300300C9446000C9446000C9456000C94460014
S11300400C9446000C9446000C9446000C94460014
S11300500C9446000C9446000C9446000C94460004
S11300600C9446000C94460011241FBECFEFD8E038
S1130070DEBFCDBF24E0A0E0B1E001C01D92AA3EE6
S1130080B207E1F70E94A4000C94BF000C94000096
S113009085B5836085BDEEE6F0E080818260808373
S11300A08CE787BD84B5826084BD08951F920F924A
S11300B00FB60F9211242F938F939F93EF93FF9377
S11300C08091000190910101883E934050F080910D
S11300D0000190910101885E934090930101809307
S11300E00001E0910001F0910101EE5FFE4F80817B
S11300F08823E9F0599A4C9B1EC0E0910001F091CD
S11301000101EE5FFE4F1082809100019091010188
S113011001969093010180930001FF91EF919F91CB
S11301208F912F910F900FBE0F901F9018958BB148
S11301301BB84C99E2CFE0910001F0910101EE5F10
S1130140FE4F81E08083E0CF2D9A579A83B7817F59
S113015083BF789485B5836085BD80916E0082608D
S113016080936E008CE787BD84B5826084BD83B7BD
S1130170816083BF889583B78E7F83BFF8CFF8945F
S1050180FFCFAB
S9030000FC
